:020000040800F2
:10000000E0070020A1010008D9520008613C000867
:1000100000000000000000000000000000000000E0
:10002000000000000000000000000000DD52000899
:100030000000000000000000DB520008DF52000852
:10004000B3010008B3010008B3010008B3010008C0
:10005000B3010008B3010008B3010008B3010008B0
:10006000B3010008B3010008B3010008B3010008A0
:10007000B3010008B3010008B30100088953000868
:10008000B3010008B3010008B3010008000000003C
:10009000B3010008B3010008B3010008B301000870
:1000A000653C0008B3010008B3010008B301000873
:1000B000B3010008B3010008B3010008B301000850
:1000C00000F002F800F05CF812A030C808382418DC
:1000D0002D18AC4201D100F053F80FCCA246AB462C
:1000E0000CA730CF2D1B083F3F197C427F1E544484
:1000F0002D090426F441641EAC4201D300F040F8FF
:100100000126334200D0FB1A3343984754465D46DC
:10011000DFE70000345F0000545F0000103A02D3B4
:1001200078C878C1FAD8520701D330C830C101D598
:1001300004680C6070470000704700000023002432
:1001400000250026103A01D378C1FBD8520700D30E
:1001500030C100D50B60704710B5662902D105F09B
:10016000C7FE10BD002010BD1FB501F0A3FA0400AA
:100170000020002105F04EFEE0601FBD10B510BD4F
:1001800001F062FE1146FFF7EFFF05F0A1FB01F061
:100190007AFE03B4FFF7F2FF03BC01F0D5FE0000C6
:1001A0000748804707480047FEE7FEE7FEE7FEE70F
:1001B000FEE7FEE704480549054A064B7047000084
:1001C00085530008C1000008E0010020E00700207E
:1001D000E0030020E0030020FEB5044610460D4673
:1001E000184373D0A6468C460020A41A01469D41B0
:1001F00067D36646002701243D46B61A9D4102D3C7
:1002000013463A462124654676462F04360C3E4373
:100210002D0CB61A9D4104D3150C1B042B4312045C
:100220001034654676462F06360A3E432D0AB61A26
:100230009D4104D3150E1B022B4312020834654660
:1002400076462F0736093E432D09B61A9D4104D341
:10025000150F1B012B431201241D65467646AF077F
:10026000B6083E43AD08B61A9D4104D3950F9B00D6
:100270002B439200A41C65467646EF0776083E4362
:100280006D08B61A9D411AD392185B41641C16E0A2
:100290000018764665464941B71A9D410191009084
:1002A00009D36046B11A98418E4684460098019958
:1002B0000025401C6941DD0752082A435B08641E83
:1002C000E6D57246634603B0F0BDFFE720462843FB
:1002D00007D00020C0430146C046C04622462B46F8
:1002E000F1E700200146F7E70FB41CB5074B06AA5B
:1002F0007B4469460090059801F0BBF900206946EF
:1003000001F0CAF91CBC08BC04B01847A5130000D2
:100310000FB41CB50C0007AA009007D04142A142BF
:1003200002D30019401E01E00020C043074B7B446C
:1003300069460190069801F09CF90020002C01D03C
:10034000009908701CBC08BC04B018477113000069
:10035000F3B50446002081B020622046E16888475A
:1003600000287AD0252802D06268A16871E0E1688F
:1003700020460025884706460020E0610746A06128
:100380002A2E0AD0304605F03DFD002827D0B800BF
:100390000019303E0090866119E00298BA001219E7
:1003A00002C8916102902046E1688847012F064605
:1003B00017D1E06900281FDA202085431CE000984F
:1003C0000A218069484300998019303888612046A5
:1003D000E1688847064605F015FD0028EFD1012F9A
:1003E0000AD02E2E08D12046E168884706462020F4
:1003F00005437F1C022FC3DBA069002803DA4042BB
:10040000A06101200543E80701D010208543002E9C
:1004100023D030464138192803D80120C0020543B3
:100420002036204625603146029A1546FFF794FE95
:1004300000280BD0012806D0ED1DE808C0000830C8
:1004400002908AE709E02D1D029586E76268304632
:10045000A1689047206A401C7EE7206AFEBD00002C
:1004600030B5441C03E00178401C00290DD0810701
:10047000F9D10B4BDD0104C8D11A91432940FAD0C0
:10048000001B0A0603D0C01E30BD001B30BD0A048D
:1004900001D0801E30BD0902FCD0401E30BD0000DE
:1004A0000101010101E004C0091F0429FBD28B07EF
:1004B00001D50280801CC90700D002707047002956
:1004C0000BD0C30702D00270401C491E022904D37E
:1004D000830702D50280801C891EE3E70022EEE735
:1004E0000022DFE7002203098B4273D3030A8B4209
:1004F00058D3030B8B423CD3030C8B4221D312E025
:1005000003460B437FD4002243088B4274D3030974
:100510008B425FD3030A8B4244D3030B8B4228D315
:10052000030C8B420DD30902FF2212BA030C8B423B
:1005300002D31212090265D0030B8B4219D300E0DB
:10054000090AC30B8B4201D3CB03C01A5241830B60
:100550008B4201D38B03C01A5241430B8B4201D310
:100560004B03C01A5241030B8B4201D30B03C01A39
:100570005241C30A8B4201D3CB02C01A5241830AB3
:100580008B4201D38B02C01A5241430A8B4201D3E2
:100590004B02C01A5241030A8B4201D30B02C01A0C
:1005A0005241CDD2C3098B4201D3CB01C01A524173
:1005B00083098B4201D38B01C01A524143098B42FC
:1005C00001D34B01C01A524103098B4201D30B01E5
:1005D000C01A5241C3088B4201D3CB00C01A52410A
:1005E00083088B4201D38B00C01A524143088B42CF
:1005F00001D34B00C01A5241411A00D20146524168
:10060000104670475DE0CA0F00D04942031000D386
:10061000404253409C46002203098B422DD3030ADB
:100620008B4212D38901FC2212BA030A8B420CD3EB
:10063000890192118B4208D3890192118B4204D314
:1006400089013AD0921100E08909C3098B4201D394
:10065000CB01C01A524183098B4201D38B01C01ACE
:10066000524143098B4201D34B01C01A5241030945
:100670008B4201D30B01C01A5241C3088B4201D3F4
:10068000CB00C01A524183088B4201D38B00C01AA1
:100690005241D9D243088B4201D34B00C01A524178
:1006A000411A00D201465241104663465B1001D305
:1006B0004042002B00D54942704763465B1000D38F
:1006C000404201B50449002802DC491C084000E012
:1006D0000846C046C04602BDFFFFFF7F7047704717
:1006E000704700000246C80FC00781434B0030B579
:1006F0004B405B009B0D20D01923DB06C91801235A
:100700001B05994220DB0324A40704251346AB40B4
:100710000BD3002B04D1EB0613409B00E34204D41F
:1007200001246407002312195941FF231B05994234
:100730000BD2C9000143500F09E0CB0204D501439D
:100740000803024305D0054830BDFF21C905084311
:1007500030BD084607210905884330BD0000C07F31
:10076000F0B50C46871A9C410D46861A9D4103D26E
:10077000C01BA141D21963410D0D1F0DC94EEC1BC9
:10078000AE435CD07F057F0D0026002F51D02D0594
:10079000AC46A943DD020123ED0A1B051D432023BE
:1007A0001B1B24D41746E740381871412F46E740F9
:1007B000CC199D402818314661410C0D27D1614468
:1007C0009A4013D50023401C594152000ED14008D5
:1007D000400001224B005205D34207D305204007B9
:1007E000C14201D5B04900E0B0493046F0BD6B00D0
:1007F000002A00D001229A181F23203C1B1B01D580
:10080000002302E0E540281871410C0DD7D00124E7
:1008100024050919C407CD0740084908E40F2843F7
:100820006144002CD5D00024401C61419A40D0D1B5
:10083000CDE76A05520DD9D1C90FC907D5E79C4D3F
:100840004E00002801D0012400E0002434195F008C
:10085000002A01D0012600E00026BE19954FAC42C7
:100860000CD8AE420AD8B44206D001256D05EC4240
:10087000BCD010461946F0BD9942FCD00020394644
:10088000F0BDF0B51FB40C460F46811A9F412546B6
:10089000861A9D4106D20125ED076F40401ABC41E2
:1008A00052187B41210D1E0D8D1BAC467D4D8D4395
:1008B0007ED075056D0D7CD00D05AE46AC431B0397
:1008C0001B0B794D52429D41202366469B1B14D33E
:1008D0001746F740381800260090744160462F46AE
:1008E0000741E41900989D402818664116D47146C6
:1008F00071189A4025D5012320E093182A466A41B1
:100900005200002B00D0521C1E23203E9B1B002BAC
:1009100061DD3541EE1728186641E8D500187641AB
:100920005B1C9A4000D3401C4B05F3181524E34090
:1009300010D3002B52D071467118D30FC01802D3B8
:10094000491C05B0F0BD0123DB079A42F9D14008EC
:100950004000F6E701225205B21801D1002853D019
:100960000123CC0ADB029943891E002A08D1020C1C
:1009700003D0020C0004103902E0024600202039A6
:100980000023550B05D112020823550B01D152014A
:100990000D23550C01D112011B1DD50C01D1920064
:1009A0009B1C150D01D152005B1C2025EE1A01E0A5
:1009B0002CE022E00546F54015439840CA1AE107AD
:1009C00069181305C918002ABBDA03204007081864
:1009D000C10FC9070FE071466118B2E7F10740087F
:1009E0000843711071444A000CD001235B059A4200
:1009F000A7D2C90FC9070020A3E74905490D26D191
:100A0000002001E00028F4D100219AE7284D66007B
:100A1000002801D0012100E0002171185F00002AA8
:100A200001D0012600E00026BE19224FA94210D8AD
:100A3000AE420ED8B14208D001256D05E94206D07C
:100A40001946A802414010467BE79C4201D021464E
:100A500077E70020394674E710B50C465C4005D5B1
:100A60000124E4076340FFF70CFF10BDFFF778FE99
:100A700010BD30B40C465C4004D50124E40763404B
:100A800030BC6DE630BCFCE670B50124E407614083
:100A90000D465D4002D4FFF763FE70BD6340FFF773
:100AA000F0FE70BDFF0700000000F0FF0000F07FC7
:100AB0000000E0FF0000F87FF0B5F94D0C091E09B9
:100AC0002C402E402F468BB0A7437DD0B543FCD0A1
:100AD000002E7AD0002CFCD00D465D40ED0F254352
:100AE000AC1BFF25AD0464190894C502440DC9026E
:100AF0002143500DDC0204430120C007014304439D
:100B0000D2020191200C110C00958C460104234661
:100B10008B430A9161460904E24D8A430991010A17
:100B20007D4449198039097805464D4301266D18E1
:100B3000F605751B6943C90C640B891C4C4364188A
:100B4000B5012C1B250C2E04B4434C434D43210C02
:100B5000691889090591009DE90701D00121C9079C
:100B600004912C4601996708CD072F434C08059D39
:100B7000E10B4D432D0C29466646754302950D4603
:100B800045432E46029D7D1BB44100950D465D43B5
:100B900001942C0C2F040D465543AE462D0C3D43BD
:100BA000029503947546049C2D04641B049406D29C
:100BB000029C039D641C002675410395029401ACC0
:100BC00070CC009F7D1B01E03EE162E1B44109046D
:100BD0000095079101940599A4086143090C0C46FE
:100BE0004443650BE7040C4666467443A646640B13
:100BF0003C43039502947446049DE4042C1B049426
:100C000006D2029C039D641C002675410395029444
:100C100001AC70CC009F7D1BB44101940C465C4339
:100C20000095650FE7000C465443A646640F3C430D
:100C3000039502947446049DE4002C1B049406D290
:100C4000029C039D641C002675410395029401AC2F
:100C500070CC009F7D1BB441AE09AF06049DC90056
:100C6000AD092F43049DA406AD060495079D3443AA
:100C700069180791059DE10B4D432D0C29466646E9
:100C8000754302950D4645432E46029D7D1BB4419A
:100C900000950D465D4301942C0C2F040D465543E1
:100CA000AE462D0C3D43029503947546049C2D04DD
:100CB000641B049406D2029C039D641C00267541AB
:100CC0000395029401AC70CC009F7D1BB44101944C
:100CD0008C050694079C890A611800950791019C70
:100CE0000599A4086143090C0D464543680BEF04C0
:100CF0000D46644665436C0B3C43049FED047D1B2D
:100D0000AC4602D20025641C6841009E019D371B41
:100D100085410846584301950C46460FC50054438B
:100D2000600F28436546E4002C1B02D20025401CBE
:100D30006E41019D3F1AB5412846BD0980062843F2
:100D40008446A009BF064E020699A40676180743FA
:100D5000079D002068410A99079019430020099BCC
:100D600000906046FF1913434041E20F64003A438C
:100D7000A4460446D71A8C41A04203D90120009012
:100D800020463A46C70F941840416246D20F22438C
:100D9000644664000494009CBE466400D71AA446CE
:100DA000044602978C417746002F01D1A04204D916
:100DB0006046401C8446029A2046C40FA6469418FA
:100DC0004041049A0546D20F224364466400D31A78
:100DD0008D417146002901D1A84202D928461A4600
:100DE000641C10430122002800D016436102002039
:100DF000079B891904465C410223002C02DB491839
:100E000013466441089DCE0A2D145D194B056705F4
:100E1000E10A2C050D1908993E43C9076940002BCA
:100E200008D0934006D30022761C5141002B01D1FB
:100E3000760876001C4A002D43DB154241D0AA43B8
:100E40003FD030460BB0F0BD06180D464D41174C53
:100E50007642AC411AD395181C465C41134A6D4248
:100E6000A24113D3012252054C00D4420AD15C00A6
:100E7000D4420BD04B4002D592021143E2E7490025
:100E80004908DFE75940C90FC90718E000200849A1
:100E9000D8E7054801420DD10342F7D0F2E7000040
:100EA0000000FF07DC5300000000F07F0000E0FFBF
:100EB0000000F87F114859400143C0124140002012
:100EC000C0E70123089A9B069A4205DC03225207D9
:100ED0008918C90FC907B5E7052252078918074ABB
:100EE0001143D2125140ADE770B515461C4602467B
:100EF0000B4628462146FFF7DFFD70BDFFFFFF7F51
:100F00001F22030C02D10F22000402D0030E03D0D3
:100F100004E00020014670470002083A030F01D1A7
:100F20000001121F830F01D18000921E002801DBF7
:100F30004000521E120551184205C01241181046B9
:100F40007047C10FC90700D04042012292071143E8
:100F5000D6E701218907D3E7F0B58B4C0F09254669
:100F600089B0BD437BD01D092646AE43FAD00E465C
:100F70005E402740F60F3E43254071D024012142B8
:100F8000FBD0FF24AD19A4042D1B039501252D05CD
:100F9000DB02DB0AC9022B43C90A29431E010901EE
:100FA000040F130F050121431701880B820391439E
:100FB0002D098C46A90B1E438A039543B30B9A0354
:100FC00096433F09BA0B9403A74302962E467E43ED
:100FD0000497B6464E19D7190C4601965443059707
:100FE0007E43371B7646BF1B3601B646BE0B36190D
:100FF00000967646BC043719009C01D3641C00940B
:101000006400002F01D001263443029E049F7543E3
:1010100066467E430496760034196E0034190094B7
:10102000029C019E1C196643751BAE4606946546DC
:101030004519059C05956C43594375460891691AF5
:101040000191049E01465143A41B0491611A009C26
:101050000791E10605D061090122114302E072E027
:101060006EE06109089D00272C0A2D066918049D71
:101070007C412A0A2D066918019D6241AC0DAD0222
:101080006D185441079A910D920255196141029AC7
:10109000644658435443069B059A5A43121A131B3D
:1010A0009A0E9B015B187A41010B0005C318514150
:1010B000220A200644195A419A4200D2491C0120B2
:1010C0004002814203D315230226F64302E0142393
:1010D0000326F6432020C51AA9401746AF40DA4040
:1010E0000A4320460399D84009147318190551186A
:1010F000039A3843D2075140AC4009D001229440B2
:1011000006D30022401C5141002C01D14008400070
:101110001E4A934212D3012203989206904207DBA3
:101120000520400709181A480143C012414004E055
:10113000032040070818C10FC907002009B0F0BDFF
:101140000020F107FAE705180C464C4111486D42A2
:10115000A04115D394181A465A410E486442904152
:101160000ED301204A004005824209D35A00824230
:1011700006D35940C90F084AC90700201143DDE7CB
:1011800000200649DAE700000000FF07FE07000024
:10119000FFFFFF7F0000E0FF0000F07F0000F87F0E
:1011A0000121C9050123411842001B06D3185B0E1B
:1011B0000AD0C1100722D206891840075242D142F4
:1011C00001D5520089187047090208D50146002A46
:1011D00003D0C10FC9070020704710467047420274
:1011E00002D0002002497047072109050143F4E7B6
:1011F0000000F87F1F22030C02D10F2200041CD034
:10120000030E01D10002083A030F01D10001121FA1
:10121000830F01D18000921E002801DB4000521E86
:10122000D2055118021251181922904004D3491CBA
:10123000002801D14908490008467047C10FC90775
:1012400000D04042012292071143D3E701218907D0
:10125000D0E70000FFB50C461E468FB003CA0890C9
:1012600009914F007D0D00D16D1E00210846002020
:10127000C0460321099A89050840002A03DA820042
:10128000801840080840800D01280A9002DD0020E7
:10129000C0430A90089807430DD0F048F049281839
:1012A00048430714189800281DD07542291E1DDDDB
:1012B0000A9842421BE01898012802D000203021F1
:1012C00004E00020F24305E02154401CB042FBDB67
:1012D00030460022189B002121540F998B600A6030
:1012E000486013B0F0BDBD1B6D1CDFE70A9A0029F2
:1012F00000DA69420BA800F063FA0BAB07CB03AB33
:1013000007C30899099800F0C7FA6B4607C301465E
:10131000D4480918002D00910BDDD24903980A9A90
:1013200049424018002303A90390684600F024FDB9
:1013300008E003990A9A0023081803A90390684655
:1013400000F0C4FC6B4607C30004000C03D000206F
:10135000C043410800E01046189A002A03D000223A
:10136000009215461EE0751E05D400F0A7F9303234
:1013700062556D1EF9D501220843079602D000225E
:101380007F1C04E02078302801D100227F1E002A33
:10139000069787D01EE0112D07DA00F08FF9303262
:1013A00062556D1C02460A43F5D1084303D00098EC
:1013B000002819D00EE00021681E05E0235C625C65
:1013C00063542254401E491C8142F7DBA81B401E77
:1013D00007950690079A18990020A0540F98079B2C
:1013E000069A81600CC07CE711260020189059E70E
:1013F000D21DF0B50D460446D10893B0C90003C90B
:101400000C900D9104F0E8FC02460D98C00F01D03D
:101410002D2007E02068810701D52B2002E040073E
:10142000C00F4001032A0F9001D0072A05DB0346B5
:101430002946204600F080F90EE12078800601D58B
:10144000E76900E006272846652D04D0662814D0F9
:10145000672D69D12DE00020112F009001DB1123B1
:1014600000E07B1C0CAA03A910A8FFF7F3FE11995A
:10147000002610987D1C0E9142E001203B460CAAEC
:10148000C0070B900120009003A910A8FFF7E2FE0F
:10149000119D12981099002600280E9501D1781CF4
:1014A0000D18781B02D446427D1C761EE81B009066
:1014B0003AE0012F00DA01270020112F009001DD12
:1014C000112300E03B460CAA03A910A8FFF7C2FEB7
:1014D00011993D46109800260E91217809070BD4EA
:1014E0000E99A94200DA0D4603A9012D04DD4A191F
:1014F000203AD27F302A06D0B84201DA011D04DA40
:10150000012100910FE06D1EEFE7002802DC861933
:101510002D1A03E0411CA94200DD0D46801B401C32
:1015200000900120C0070B902078000705D4009898
:10153000A84202DB0020C043009069460020C87228
:101540000B98012102AF0337C907884225D002203A
:1015500010902B2011900B9800280BDA40420B9032
:101560002D20119006E00B9800F056FC30317F1EC4
:101570000B9039701099481E00291090F3DC0B98DD
:101580000028F0D111987F1E38702088000501D501
:10159000452000E065207F1E387001A8C01BC01DDB
:1015A0000B900F98002800D0012041190098C01717
:1015B00009180B980818A169081A401EA061207824
:1015C000C00602D42046C046C0460F98002805D069
:1015D0006268A1689047206A401C20622078C0069B
:1015E00025D52046C046C04621E0002E07DB0E98D8
:1015F000B04204DD03A86268805DA16802E0626811
:10160000A16830209047206A761C401C2062009818
:10161000401E002800900AD100F04CF8C0686268B3
:101620000168405CA1689047206A401C20622846FF
:101630006D1E0028D9DC07E062683878A1687F1C3D
:101640009047206A401C20620B99481E00290B908D
:10165000F2DC2046C046C046032042E601FCFFFF04
:10166000104D0000E1DFFFFF01694A1C02610878AC
:10167000704700B58FB00291002105910549019393
:1016800079440391114604906846FEF761FE0FB05D
:1016900000BD0000E5FFFFFF0A681070521C0A60E1
:1016A00070470CC908399A4202D2531C0B60107063
:1016B0007047000000487047300000200B4670B5AE
:1016C000024689078008084319469D08141AA94153
:1016D00025090807054308092C194841250A010670
:1016E0000D43010A2C194141200C0D0428430D0C17
:1016F00000194D41002140194D41C00869070843B8
:10170000E908840F8D002543840024184D412419D5
:101710006D41121BAB4107E00925ED432C11521915
:1017200063410024401C61411C460A250026551BCC
:10173000B441F1D270BD0000F8B51F460446012344
:101740000068DB02032601461840072A05DB002853
:1017500001D017A506E017A504E0002801D016A5C2
:1017600000E016A5102081432160A069C01E002F53
:10177000A06101D0401EA0612046C046C046002F97
:1017800009D038466268A1689047206A401C2062F0
:10179000C01C206206E0206AFAE762682878A16827
:1017A0006D1C9047761EF8D22046C046C046F8BD54
:1017B0004E414E006E616E00494E4600696E6600F5
:1017C000F7B516468AB0334878446C4603467C33F6
:1017D000C06F5A689B680DC42E487844763003ACBD
:1017E0000DC80DC43720C001081837211B30FEF783
:1017F00087FE05460C46803D1B3C02D56442012015
:1018000000E000200027099010E0E0070CD00C2039
:1018100020497843794432464C39411868460123BF
:1018200000F054FA6B4607C364107F1C002CECD107
:10183000184F7F442E3F16E0E80712D02001C01950
:101840000EC80691089307920068F04201D19819DA
:1018500008903246012306A903A800F037FA03AB2B
:1018600007C36D10641C002DE6D10998002806D02E
:1018700032466946012303A800F07EFA05E0012301
:101880003246694603A800F021FA0A9B07C30DB04F
:10189000F0BD0000B4470000034640000A4610B502
:1018A000400D0BD00121C9070F24A40200191C030D
:1018B00064082143540D2143D20207E00021012096
:1018C000F2E7D40F490021435200401E0029F8DA04
:1018D000DB0FDB07184310BDFFB50D46144685B07E
:1018E0004868516804F05FFA00910190A868A16807
:1018F00004F059FA02910390A868616804F053FA61
:10190000029A12188242029201D2012000E00020C5
:10191000019A0B18D2180028019202D08A4202D9EB
:1019200003E08A4201D2012000E00020009908185B
:1019300000906868A16804F036FA029A1218824290
:10194000029201D2012000E00020019A0B18D21867
:101950000028019202D08A4202D903E08A4201D2D1
:10196000012000E0002000990818009028682168F4
:1019700040004900400849084018FA49471814E057
:1019800001994000C90F0843009001980299400056
:10199000C90F08430190029803994000C90F0843FA
:1019A0000290039840007F1E039000980028E7DA19
:1019B0000898002801D0EC4E00E00026B74201DA7A
:1019C000012000E00020002804902AD0F71BF80630
:1019D000C00E15D0029B2021091A039A8B401A438E
:1019E0000392029A019BC2408B401A430292019AD1
:1019F000009BC2408B4000991A430192C140009164
:101A00007B110DD06F460320C11A03D5002182003F
:101A1000B95003E08A008100BA587A50401EF3D5CD
:101A2000374603980299002800D001200143089806
:101A30000291002808460CD0002800D0012001990E
:101A4000019A490508430121D20AC902D202019232
:101A500000E001210E9B0122D207012B02D0002BB6
:101A600003D013E0002807D120E0904204D8904230
:101A70000CD1019B0B4209D0019B5918019105D152
:101A80000099491C009101D17F1C009200280DD0C3
:101A9000102108460020C0460498002806D00F9860
:101AA000002803D0082108460020C0462868216885
:101AB000019B009A4840C10F0598C90739430EC0E1
:101AC00009B0F0BDFFB587B0099A08980899536826
:101AD00092684068896896460022039317469446A8
:101AE000089A12685300099A5B081268520052085B
:101AF0009A1A9E4BD4180A9A002A01D0352200E087
:101B0000402206920022012315460492DB0705932A
:101B100024E0002D05D175460346039E4D1BB341BD
:101B200009D375466646039B491B049D9841059B56
:101B30007519AC465F4163463B4308D0059B049E44
:101B4000DD0776082E435B080496059301E0521EDC
:101B5000641EC50FED0749184041521C069B9A426E
:101B6000D7DB002D04D17546039A6B1A824101D24E
:101B700003200CE0039A0B466B404240134303D012
:101B8000014303D0012002E0022000E00020614672
:101B900001910021009702910A99002905D0614620
:101BA00040020143704B019102E080070023029044
:101BB0009C4201DA012000E0002007003AD01A1B05
:101BC000D006C00E15D0029D2021019C091AC540E7
:101BD0008C402543029C8C4000D001242543019C6D
:101BE0000295009DC4408D4000992C430194C14052
:101BF000009154111DD06D460221002202290CD102
:101C00000320001B07E0002804DB8600AE59002EED
:101C100000D00122401C0328F5DB081B02D58800F8
:101C20002A5004E08000285810438A00A850491E1A
:101C3000E3D51C460A98002802980CD0002800D052
:101C400001200199019A490508430121D20AC902DC
:101C5000D202019200E00121109B0122D207012B48
:101C600002D0002B03D013E0002807D11FE09042E0
:101C700004D890420CD1019B0B4209D0019B59180A
:101C8000019105D10099491C009101D1641C009279
:101C900000280CD0102108460020C046002F06D096
:101CA0001198002803D0082108460020C046089853
:101CB0000999019A009B006809684840C10F07987C
:101CC000C907214382600AC00BB0F0BD00B585B0E2
:101CD000019300920A460146002302A8FFF7FCFD8B
:101CE00002A807C805B000BDFFB50A461F4685B06B
:101CF0000799019301230091014602A8FFF7ECFD2B
:101D000002990398049ECA0F4900D20700920F223D
:101D1000490892028C1A0021002800DB0C4645007D
:101D200013486D08844214D3079A002A04DA441E2B
:101D30000026104DF64302E004460D460E461021E3
:101D400008460020C046002F03D00421084600208A
:101D5000C0462005E90A0843009908436905F20ACC
:101D60001143ADE602C0FFFF013C0000FF3F000051
:101D7000FF070000FFFFFF7F00B585B001930092D1
:101D80000A460146002302A8FFF79CFE02A807C8E6
:101D9000A8E7FFB50A461F4685B0079901930123BE
:101DA0000091014602A8FFF78DFE02990398049E58
:101DB000CA0F4900D20700920F22490892028C1ADA
:101DC0000021002800DB0C46450011486D088442C4
:101DD00014D3079A002A04DA441E00260D4DF64358
:101DE00002E004460D460E46102108460020C0467B
:101DF000002F03D0042108460020C0462005E90A30
:101E00000843009908436905F20A114358E60000A7
:101E1000FF070000FFFFFF7F01468008081A020944
:101E20001018020A1018020C1018C00882001218AC
:101E30005200891A01E0401C0A390A29FBD2704776
:101E400000487047100000207546FFF7F9FFAE46C6
:101E5000050069465346C008C000854618B020B545
:101E6000FEF7A8F960BCB64600260027C0C5C0C56D
:101E7000C0C5C0C5C0C5C0C5C0C5C0C5403D490876
:101E800049008D46704710B50446C046C0462046FE
:101E9000FEF77FF910BD000082078B079A423FD101
:101EA00070B5920F0AD0032402780B78401C491CAD
:101EB000002A33D09A4231D12042F5D1214EF4018B
:101EC00004C808C9951B9543254018D19A420FD1E3
:101ED00004C808C9951B9543254010D19A4207D1E3
:101EE00004C808C9951B9543254008D19A42E7D0FC
:101EF00012BA1BBA01209A4200D2404270BD12BAF7
:101F00001BBA2DBA18241000E0401900E140401A15
:101F100005D12E00E64002D1083CF4D1D01A70BDA4
:101F200002780B78401C491C002A09D09A4207D13C
:101F300002780B78401C491C002A01D09A42EFD04D
:101F4000D01A70470101010101491820ABBEFEE71C
:101F5000260002007047B0B5014624314A78022AB3
:101F600018D1026813680E24A34313601368012577
:101F7000AB431360026C436C1C241C402B46A340F3
:101F8000536000240C704D70816B002900D088478D
:101F90002046B0BD0421C1630120B0BD2521405CB5
:101FA00070470000B0B5044600F0D6F80546601C46
:101FB00002D004480078041900F0CEF8401BA0427B
:101FC000FAD3B0BD04000020F0B588B004900B68CF
:101FD000002B00D1ADE00E4657480499814201D054
:101FE000062000E005200B210907049A52180A2157
:101FF000CA410192052A00D3019004982030009034
:10200000002425462746194607960CE010434B4905
:1020100008607F1C079E31680846F840241DAD1CEF
:10202000002800D185E001221046B8400140F0D0E0
:10203000029203910799496803220B4613405E1EE2
:10204000012E0694059212D81646AE40049A946862
:10205000B443079EF668AE4026439660C906C90F92
:10206000B940546884430C435460059A069C032B82
:10207000079E1AD01046A840049AD1688143B068E0
:10208000A8400843D060059A022B0ED11C202040A6
:102090000F218140FB089B00009AD4588C43316982
:1020A00081402143069CD150059A1046A8403346F2
:1020B0001646049A11688143586883033040A8404B
:1020C00008431060980F039A029BA2D01C4908682D
:1020D000184308600C2020400F2181403B46B34349
:1020E000184E9C598C4301998140214399511348C2
:1020F000806807994B68D90201D5104300E09043EE
:102100000E498860C8689902069C01D5104300E01A
:1021100090430A49C8604868990301D5104300E01C
:102120009043064948600868D90300D56EE790439C
:102130006DE708B0F0BDC046001C0050000401402F
:102140003410024008000140002A02D018228150B9
:102150007047282281507047014800687047C04688
:10216000D0010020B0B50246034640335C7802201F
:10217000202C17D11C78012C14D024205870106802
:1021800002680124A24302602203056895430560AA
:1021900002680A4302600168214301600020187050
:1021A00020215970B0BDB0B50246034640335C787B
:1021B0000220202C17D11C78012C14D02420587018
:1021C000106802680124A24302600F22120205680F
:1021D0009543090229430160016821430160002001
:1021E000187020215970B0BD70477047F0B581B0AC
:1021F0000122150201688B691C462C40664266412B
:102200000F6880243C4067426741374304D1466CE5
:10221000012737434764CD61654265415E05164637
:1022200000D52E46002E05D19502466C082737436F
:102230004764CD61654265419B05134600D52B4639
:10224000002B05D15202436C02241C434464CA6132
:10225000416C0B22114201D001F0B8FD01B0F0BD7C
:1022600080B502689169436B1268002B00D09847D3
:1022700080BD7047F0B581B0002821D005464035BB
:102280006978002905D100212970044600F0CCFBB3
:102290002046242169700121CB43026814681C4048
:1022A00014600F231B0644689C43146194681B4B05
:1022B0001C409460C468012C05D02126B60203E0BE
:1022C000012001B0F0BDCE03876837439760A41E9C
:1022D00066426641F402CE025768B7433C19546027
:1022E00054680F4E26435660D4681C40D46003697E
:1022F00044691C4383691B022343D360C369046A96
:102300001C43146013680B431360002141642022B6
:102310006A7001630846A97001B0F0BDFF7FFFFF3E
:1023200000800002704770477047000080B5006869
:102330000C49884200D080BD0B48022101700B4837
:102340008178090442781202511800780818084967
:102350000860FEF77BFF7321C90503F071FD054995
:10236000086080BD0058004073000020700000200D
:102370009C010020A001002070470000F0B587B04C
:1023800004460646403675780220202D09D10C9F60
:10239000002F08D00D9D002D05D004953578012D16
:1023A00006D107B0F0BD01204102616407B0F0BD65
:1023B0000293019205910120069003963070FFF779
:1023C000CBFE05462068806900043DD40E9E222085
:1023D00003994870402088700023636404986085E6
:1023E000D048059901400298C0B2000405914018F8
:1023F000069021684A68CA4802400698801801225F
:102400000692520380184860676204936363886988
:1024100006E020688069800700D415E120688069A3
:10242000800733D4204631462A4601F0B9FF002800
:1024300000D012E1701CF1D0FFF78EFE002EE8D024
:10244000401BB042EAD9E4E70698C60303E02068DF
:1024500080693042BAD0192120462A4601F0A0FFF7
:10246000002800D0FCE0FFF777FE401B1A28EED3CF
:10247000206880693042EAD0606C202108436064A3
:10248000039A5170002010709070E9E02068029962
:10249000012903D10199C9B2816228E00199090A91
:1024A000816205E020688069800700D4CCE0206864
:1024B0008069800711D4204631462A4601F070FF1A
:1024C000002800D0C9E0701CF1D0FFF745FE002EB7
:1024D000E8D0401BB042EAD9E4E721680198C0B2D5
:1024E000886204E020688069400600D4ACE020687F
:1024F0008069400611D4204631462A4601F050FF3B
:10250000002800D0A9E0701CF1D0FFF725FE002EB6
:10251000E8D0401BB042EAD9E4E7608D000A059894
:1025200008D001212185226851687D4B1940121D78
:102530004E4B0AE0618D218522685368784F3B40FD
:10254000C9B209041943121D474B194301431160D5
:10255000474F03E02068806940078DD52068806977
:10256000400710D4204631462A4601F019FF0028C2
:1025700076D1701CF2D0FFF7EFFD002EEAD0401BA1
:10258000B042EBD9E6E7606A2168496A0170608D64
:10259000401E6085606A401C6062208D401E208560
:1025A000618D002936D0000405D033E020688069B1
:1025B000000600D460E720688069000610D4204639
:1025C00031462A4601F0ECFE002849D1701CF2D0B9
:1025D000FFF7C2FD002EE9D0401BB042EBD9E5E782
:1025E000608D000A07D001202085216848683840A6
:1025F000091D204A0AE0608D208521684A683A401A
:10260000C0B20004104301225206091D059B10436D
:1026100018430860608D0028A0D1204631462A4624
:1026200002F024FB00280698039D00D0B9E620683C
:102630002021C1614268FB4B1340436069700498DC
:102640002870A87007B0F0BD606C2021084360645A
:102650000398417004990170817003980499017086
:10266000069807B0F0BDC046002400020024010116
:10267000009C00FC00000101F0B583B00446054653
:1026800040356E780220202E43D10293089F002F00
:1026900023D0099B002B20D026680196B66936040A
:1026A00037D42E78012E34D0222068704020A870B4
:1026B000002060646385184BE362012300932B7054
:1026C0006762164B6363E164029E012E0AD1D2B2A7
:1026D000019FBA620022D24308E0012041026164F6
:1026E00003B0F0BD130A019FBB62D2B222657A68C3
:1026F000C84B1340C64A1140F2B212045118C9180F
:10270000009A52038918796028703968F2220A43C6
:102710003A6003B0F0BDC0460000FFFF2548000846
:10272000009800FCFF030000F0B587B004460646A1
:10273000403675780220202D09D10C9F002F08D03B
:102740000D9D002D05D005953578012D06D107B0DA
:10275000F0BD01204102616407B0F0BD0293009218
:1027600006910120049003963070FFF7F5FC0546B2
:102770002068806900043AD40E9E21200399487095
:102780004020887000200190606405986085A04812
:10279000069901400298C0B20004069140182168D1
:1027A0004A689C4B1340C0189B4A80184860676277
:1027B00001986063886906E020688069800700D41A
:1027C00016E120688069800733D4204631462A46C6
:1027D00001F0E6FD002800D013E1701CF1D0FFF7F6
:1027E000BBFC002EE8D0401BB042EAD9E4E70498D5
:1027F000C60303E0206880693042BDD0192120461D
:102800002A4601F0CDFD002800D0FDE0FFF7A4FC32
:10281000401B1A28EED3206880693042EAD0606CF1
:10282000202108436064039A51700020107090705A
:10283000EAE020680299012903D10099C9B28162B6
:1028400028E00099090A816205E020688069800714
:1028500000D4CDE020688069800711D4204631463D
:102860002A4601F09DFD002800D0CAE0701CF1D07E
:10287000FFF772FC002EE8D0401BB042EAD9E4E733
:1028800021680098C0B2886204E020688069000670
:1028900000D4ADE020688069000611D4204631469E
:1028A0002A4601F07DFD002800D0AAE0701CF1D07E
:1028B000FFF752FC002EE8D0401BB042EAD9E4E713
:1028C000608D000A554F069807D0FF2121852268A8
:1028D00051683940121D524B0AE0618D21852268F2
:1028E00053683B40C9B20904194301235B06121D1A
:1028F0001943014311604A4F03E020688069800753
:102900008DD520688069800710D4204631462A463C
:1029100001F046FD002877D1701CF2D0FFF71CFCB7
:10292000002EEAD0401BB042EBD9E6E72068616A8E
:102930000A788262628D521E6285491C6162218D15
:10294000491E2185628D002A38D0090406D035E061
:1029500020688069000600D461E72068806900066D
:1029600010D4204631462A4601F01AFD00284BD1EA
:10297000701CF2D0FFF7F0FB002EE9D0401BB042F4
:10298000EBD9E5E7608D000A08D0FF20208521689B
:102990004868224A1040091D3A460BE0608D2085A8
:1029A00021684A681D4B1A40C0B20004104301223E
:1029B0005206091D069B104318430860608D0028CD
:1029C0009FD1204631462A4602F050F9002804984B
:1029D000039D00D0BBE620682021C1614268114BF5
:1029E00013404360697001982870A87007B0F0BD6B
:1029F000606C202108436064039841700199017064
:102A00008170039801990170049807B0F0BDC04629
:102A1000FF030000009800FC00200001009C00FC67
:102A20000000FF0100E800FEB0B586B00024059468
:102A3000049403940294019400681549884201D0DB
:102A400006B0B0BD134D28680221084328602868ED
:102A50000840009006200590039412200290032065
:102A600004908002019000980B4801A9FFF7ACFA8E
:102A700001208005E9680143E960182528462146C0
:102A8000224600F067F8284600F058F806B0B0BDBE
:102A9000005800402C10024000040050704770475E
:102AA0001D48007802490A68101808607047C0463F
:102AB000D001002010B50848016840220A43026096
:102AC0000024204600F00AF8002801D0012010BDA3
:102AD00000F028F8204610BD00200240B0B50446A2
:102AE0007D20C0000C49097803F062F801460B48CC
:102AF000006803F05DF800F063FD0125032C09D8A0
:102B0000002807D10025E84321462A4600F022F894
:102B1000034804602846B0BD0400002000000020E7
:102B200008000020044801680122114301601107D8
:102B300042680A434260704734100240002805D4BE
:102B40001F21084001218140014801607047C046B3
:102B500000E100E0002805D40322034693430A4A1B
:102B60009A1803E00C220240064BD2188007C00ED0
:102B70008901C9B28140FF2383401068984308430C
:102B80001060704714ED00E000E400E0F0B589B09B
:102B900001252F020268EB02194620317F4C0A42C0
:102BA00000D19EE0079308902907143C2068084054
:102BB000069002D120680843206001940291784C6D
:102BC000206838420FD1206838432060FFF7C4FAEC
:102BD00006462068384206D1FFF7BEFA801B6428FB
:102BE000F7D903259BE0049703273E056B4C20464D
:102BF0004C38059001683140089B5868024603969E
:102C0000324000973E04914209D102463240B2421E
:102C10000DD19A68039B1A40914204D107E0014606
:102C20003140B14203D105990968890377D46168BD
:102C30003140049F1FD03040814203D00898007873
:102C4000800609D4089880683040814213D00898E3
:102C50000068079908420ED0504B5868E9045A683A
:102C60000A435A605A688A435A600146B143596020
:102C7000384200D082E00898056807990D42474C19
:102C800012D0826811463140B1420AD10398024005
:102C900003231B05059804689C43144304603F4CC0
:102CA000089862680A436260A90612D541680C461A
:102CB0003440B44208D1039A114003221205059D05
:102CC0002B6893430B432B60344A516821431446CD
:102CD00051600699002904D1019B1968029A914319
:102CE00019600368D9071DD1990723D4590729D43E
:102CF000190730D43B4237D1590606D50121890640
:102D000022688A43416A114321600025190606D5CD
:102D100003218A0421689143006A08432060284601
:102D200009B0F0BD216803229143C2680A432260C2
:102D30009907DBD521680C22914302690A4322607E
:102D40005907D5D50321890222688A434169114375
:102D500021601907CED50321090322688A438169BE
:102D6000114321603B42C7D00321090422688A43F2
:102D7000C169114321605906C0D4C6E7FFF7ECF9D9
:102D80000546864C05484068800500D573E7FFF787
:102D9000E3F9401BA042F5D9009DC0E74C1002406A
:102DA00000700040F0B583B0002844D00E46029079
:102DB00079480068012101910840B04214D2764957
:102DC00008680125A84330430860744CFFF7C4F934
:102DD0000746714800682840B04205D0FFF7BCF9AB
:102DE000C01BA042F5D923E0029D28688107794CD9
:102DF00005D52168F0229143AA680A432260C007E2
:102E00001CD16548006801273840B04224D9624986
:102E10000868B8430860614CFFF79EF905465E48B4
:102E20000068C00718D0FFF797F9401BA042F6D9F9
:102E3000032003B0F0BD012003B0F0BD6A68214655
:102E40000C390968012A34D0032A2DD0022A72D104
:102E5000890301982BD52FE0029B186841075D4C30
:102E600006D50721090222688A43D96811432160E7
:102E7000000707D50720C002216881431869C000F8
:102E80000843206021680807820F6C487A44127951
:102E9000520097440154735B38042146083909688D
:102EA0000904490F884069E08901019804D403B0FE
:102EB000F0BD49070198FAD52168032001908143AC
:102EC00011432160FFF748F907466868334D03282E
:102ED0002BD002281ED001280AD120680C210140E5
:102EE00004298ED0FFF738F9C01BA842F5D909E0B4
:102EF00020680007800F00D183E7FFF72DF9C01B82
:102F0000A842F5D9019803B0F0BDFFF725F9C01B21
:102F1000A842F7D820680C2101400829F5D170E7B4
:102F2000FFF71AF9C01BA842ECD820680C21014019
:102F30000C29F5D165E789050198B8D5BCE720468D
:102F40000C380068C00612D53F4817E08A02120FFD
:102F50003B4B9A5C0902890F491C2368DB0309D4A7
:102F600020460C380068C00603D5374802E03548D3
:102F700004E034484243104602F01AFE2168090674
:102F8000090F074A515CC8401149086005480068AC
:102F9000FFF7A4FD03B0F0BD00200240881300003D
:102FA0001460000808000020094800680949096801
:102FB0004905490F084A515CC840704704480068F9
:102FC000044909688904490F034A515CC8407047A5
:102FD000000000200C1002402460000810B5834B54
:102FE000D9680807820F15487A441279520097442D
:102FF0000108070D0120000459680904490F8840A1
:1030000010BD1868C00610D50F4810BD8A02120FF7
:103010000B4CA25C0902890F491CDC68E40307D44D
:103020001868C00603D5084802E0064810BD0548E8
:103030004243104602F0BCFD10BDC04600127A00AB
:103040002C6000080024F40000093D00F0B589B0B0
:10305000002858D0654EF1680C220A4006920121E2
:1030600005910904F76804910F4007900078C007A4
:1030700012D0059844040698082806D006980C2813
:1030800000D0D5E0002F00D1D2E03068204203D03C
:1030900007984068002852D007980078800735D4F8
:1030A00007980078C0064DD407980078000765D4CB
:1030B00007990878400700D59AE00878800600D57F
:1030C00018E10798846A002C1AD006980C2800D0C2
:1030D00061E1012C33D0F068049A0240079BD96A61
:1030E0008A422CD10F21890401401A6B914226D1CA
:1030F000032189050840596B8842059800D049E2B0
:10310000002009B0F0BD012009B0F0BD079BD868D0
:10311000810604D53168202211433160904306991D
:10312000042906D006990C2900D0A2E0002F00D077
:103130009FE03168002838D10422114035D005982D
:1031400009B0F0BD012044020699002900D1A6E093
:103150003168079AD2690002002A00D1FAE00143DF
:103160003160FEF7F9FF05463068204200D001E1EA
:10317000FEF7F2FF401B0228F6D913E0306D0799E5
:103180004969002900D1D4E0012108433065FEF7E8
:10319000E3FF0546306D80078AD4FEF7DDFF401B54
:1031A0000228F7D9032009B0F0BD1F210902726877
:1031B0008A431969090211437160316809229143F8
:1031C00001433160F1680807820FF3485200C0469E
:1031D0007A4492885200974403002E01CE014401A4
:1031E00070680004410F04988840C4E10010024058
:1031F00001221107B06B0840019002D1B06B084367
:10320000B063009103921702EA4C2068C0051ED4F7
:10321000206838432060FEF79FFF0546206838424B
:1032200015D1FEF799FF411B03206429F6D9B1E1BE
:10323000306807994A68052109048A42039200D13F
:10324000CAE004998A4200D0CEE00843D6E0306D4F
:1032500007998B68002B029300D138E10521090200
:103260008B42039A00D12CE1BB4200D033E13843BA
:1032700036E13168002800D1E2E0092291430143A0
:103280003160FEF769FF05463068400700D50EE162
:10329000FEF762FF411B03200229F5D97AE131686C
:1032A000214204D00799C969002900D172E10720A1
:1032B000400371688143079B586A01437160FF2195
:1032C000090672688A43196A090689187160400BF9
:1032D00004998140F0680006000FB34A105CC140B9
:1032E000B2480160B2480068FFF7F8FB002800D040
:1032F00050E1D9E6B06807998969002900D1C0E09A
:1033000001210843B060706B084370634803AB4908
:103310000A6802430A60FEF71FFF0546B06880078F
:1033200000D5CEE6FEF718FF411B03200229F5D990
:1033300030E1012188433065FEF70EFF0546306D10
:10334000800700D4B4E6FEF707FF411B03200229E3
:10335000F5D91FE181433160FEF7FEFE0546306876
:10336000204200D1A0E6FEF7F7FE411B0320022910
:10337000F5D90FE10720400371688143079A506A2D
:1033800008437060FF20000671688143106A0006E0
:103390004018706088E60120010632688A43326076
:1033A0004706FEF7D9FE0546022C0AD1306838429E
:1033B00000D1BDE0FEF7D0FE411B03200229F5D964
:1033C000E8E03068384200D19AE6FEF7C5FE411BBE
:1033D00003200229F5D9DDE005998904084330600E
:1033E00030680499084309E0884330603068084039
:1033F0000890089805988104306888433060FEF78B
:10340000ABFE05460398002811D03068204200D05A
:1034100042E6FEF7A1FE411B03206429F5D9B9E07D
:10342000FEF79AFE411B0320642900D9B2E0306800
:103430002042F5D130E63068C00677D559489AE089
:10344000012081433160FEF787FE05463068400762
:1034500000D425E6FEF780FE411B03200229F5D9A2
:1034600098E08A02120F4D4B9A5C0902890F491CA1
:10347000F368049C23427AD13068C00676D5494867
:1034800075E001218843B06048034C490A688243D3
:103490000A60FEF761FE0546B068800700D410E6BA
:1034A000FEF75AFE411B03200229F5D972E01F20C6
:1034B0000002716881430798006900020843706048
:1034C000EEE5910208433065306D384308E0B843BB
:1034D0003065039A01E0B84330659102306D88434E
:1034E00030655702344CFEF737FE05460298002837
:1034F0000FD0306D38420FD1FEF72EFE411B032056
:10350000A142F6D946E0FEF727FE411B0320A14267
:1035100040D8306D3842F6D101980028079900D084
:10352000CBE5B06B009A9043B063C6E51C4822E03F
:10353000FD200004F1688143079B2C330DCB084329
:1035400010431843F0602848401C31680143316043
:10355000FEF702FE04463068384200D0D0E5FEF7A0
:10356000FBFD011B03200229F5D913E00C4842435F
:10357000104602F01DFBF1680906090F0A4A515C6A
:10358000C8400A4908600A480068FFF7A7FA0028FF
:1035900000D185E509B0F0BD00127A002C6000086A
:1035A0000024F40000093D00146000080000002021
:1035B0000800002000700040881300002000014037
:1035C000401E010E01D0012070470749074A506094
:1035D000074803680B400321890759180160002040
:1035E0009060072111607047FFFFFF0010E000E0CE
:1035F00020ED00E0B0B53822825C012A01D1022022
:10360000B0BD0246383202235370012313700068A4
:1036100044687025AC430D682543846845605A4D65
:10362000A84206DC9D07A84209D05A4DA84206D000
:103630000AE0564DA84202D0554DA84204D180253B
:10364000AC43496821438160002010705370B0BDC5
:10365000B0B5002819D0054638356978002905D15C
:1036600000212970044600F04DF8204602216970BF
:1036700001680C68444B994209DC0122920791428F
:103680000BD0444A914208D015E00120B0BD3F4A1A
:10369000914202D03E4A91420DD1702294438268F9
:1036A000224399420ADC01239B0799420CD0394BF3
:1036B000994209D024E022469942F4DD334B9942E5
:1036C00002D0334B99421BD103231B029A43036957
:1036D0001343C268CA6242688A620A6804241443B7
:1036E0000C6001224A618024A343406918430860AA
:1036F000AA71AA70EA702A716A716A700020B0BD5E
:103700001346E6E710B501218A070068904200D011
:1037100010BD074802680A4302600F2400212046BA
:103720000A46FFF717FA2046FFF708FA10BDC04611
:10373000381002403921415C012912D1014639314A
:1037400002220A700068C26801210A43C2600E4A60
:10375000904208DC8A0790420BD00E4A904208D073
:103760000CE001207047094A904202D0084A90427A
:1037700004D1826807231340062B02D002680A4353
:10378000026000207047C046FF070140001401405E
:103790000008014000040040F0B581B03822825C8E
:1037A000012A02D1022001B0F0BD024638320223C4
:1037B0005370012313704C4F3C46773C0568A86852
:1037C0002040A8600E6800244F2E1FDC1F2E35DD20
:1037D000202E37D0302E35D0402E00D082E0286AFF
:1037E0002E6A0127BE432E62AE69F027BE43CF6822
:1037F0003F013743AF610A26B0434968014329625C
:10380000A868472101433020814365E06F2E21DD08
:103810005803864253D01803864220465ED0702E4D
:1038200060D1A86838404E688F68C968374309027C
:1038300039430143A960A86877214CE0002E01D0EC
:10384000102E4FD1A86870218843064307203043CB
:10385000A86042E0502E1CD0602E43D12E6A10206A
:10386000C04300902F6A07402F620F273F03A869CB
:10387000B843CF683F030743AF61A0208643486841
:10388000000130432862A868672101430098014085
:1038900022E0286A2E6A9E432E62AE69F027BE435C
:1038A000CF683F013743AF610A26B04349680143FF
:1038B0002962A86857210143202081430CE0A868B1
:1038C00038404E688F68C96837430902394301435D
:1038D000A9609803A9680143A96020461470537039
:1038E00001B0F0BD1846F9E7FF00FFFF7047F0B5E3
:1038F00085B004460068C5680227294639404A4217
:103900004A410169049139404B424B4113434021E4
:103910000291C9430391002B13D103993E310161F8
:10392000012121768069800703D02046FFF7DEFF62
:1039300005E0204600F094F8204600F092F80020C0
:103940002076012604222946114048424841049924
:103950004907314600D501460320000201900029A5
:1039600016D10092206803993C3101612776806965
:103970000199084203D02046FFF7B8FF05E0204632
:1039800000F06EF8204600F06CF800202076009AD7
:1039900008272946394048424841049909073146D9
:1039A00000D50146002913D12068039938310161FF
:1039B0002276C069800703D02046FFF797FF05E015
:1039C000204600F04DF8204600F04BF8002020760D
:1039D00010212940484248410499C906314600D582
:1039E0000146002914D120680399303101612776FE
:1039F000C0690199084203D02046FFF777FF05E030
:103A0000204600F02DF8204600F02BF8002020760C
:103A100001212940484248410499C907314600D054
:103A20000146002906D1206803993F3101612046F3
:103A300000F018F802980540684268410499490668
:103A400003D4002E04D005B0F0BD0646002EFAD1F6
:103A5000206803990161204600F016F805B0F0BD1A
:103A600070477047B0B50124A1070068884207D1AC
:103A7000044D2878002803D1824801F009FC2C70FD
:103A8000B0BDC046730000207047B0B500281DD0FF
:103A90000446C06F002805D178200021215420461B
:103AA00000F02AF82420E067206801680125A94376
:103AB0000160606A002802D0204601F06DFC2046BB
:103AC00001F036FD002803D02846B0BD0120B0BD6E
:103AD0000920C00221684A6882434A6088682A2215
:103AE000904388600868012202430A60204601F082
:103AF000BDFC05462846B0BD10B586B00021059135
:103B000004910391029101910068114A904201D001
:103B100006B010BD012042040E4BDC681443DC608B
:103B20001A6802431A601A68024000920420059045
:103B3000032004900391022002900C2001900520A4
:103B40000007009901A9FEF73FFA06B010BDC04674
:103B5000004400402C100240F0B583B00446C06F12
:103B6000202811D1012000290CD0002A0AD01D469E
:103B700001200603A368B34209D1CB0707D023690C
:103B8000002B04D103B0F0BD022003B0F0BD0091C2
:103B900027465037204684300021019101602120C2
:103BA000E0670292FEF7D8FA31460646029878801E
:103BB0003880A068884202D12069002802D000988D
:103BC000029010E000200290009801900BE0029813
:103BD00000281DD00246007821688862521C02929B
:103BE0007888401E7880788800281CD02068C069BA
:103BF0000006ECD4681CF9D0FEF7AEFA01460320AB
:103C0000002D27D0891BA94224D820680068EDE741
:103C1000019A10881149084021688862921C01921B
:103C200000200290DCE72068C069002701E02068DE
:103C3000C06940060DD4681CF9D0FEF78DFA014624
:103C40000320002D06D0891BA94203D820680068F4
:103C5000EDE738462021E16703B0F0BDFF01000029
:103C6000FEE7000080B50748006880694005400F06
:103C700003D00448FEF7BAFA80BD0248FEF7F0FA16
:103C800080BDC0467800002080B5806A816B002925
:103C900001D000228A6301464031C26B002A01D064
:103CA000002393634A78602A07D120224A700022B9
:103CB0000A700263FEF798FA80BD00220A70026360
:103CC000FEF7D7FA80BD000010B50AB2002A03DA69
:103CD000B822CB0703D104E00022CB0701D0F223A6
:103CE0001A438B0711D4102901D190231A43436B37
:103CF0000F4CA3420ED00F4CA3420BD00E4CA3424C
:103D000008D020290ED120210BE0F4231A431029DA
:103D1000EBD0ECE7202901D160231A43402901D1DF
:103D200040210A43006801681143016010BDC0468C
:103D300061460008D9440008294A0008F0B581B05E
:103D400006464036717828220A400568282A1AD18A
:103D5000A969AC69AB68EA680092FE22240CC90329
:103D6000C90FC768022F14D1DF0967407C07A40F71
:103D70001BD0009B1340002232702A68B824A24353
:103D80002A601A460DE0002030700820E86101B07A
:103D9000F0BD002333702B68B826B3432B6014406A
:103DA0002246FEF722FA01B0F0BD826C521C8264FA
:103DB000826C022AEBD1044C1A4622400023836411
:103DC00033700823EB61ECE7FF03000070B5044695
:103DD000054640356A780020A870A14BE3626085F3
:103DE000636C0B4363646978283A022A05D828205B
:103DF0000140282925D0F22124E0697821680A6849
:103E0000FE239A430A608A69920700D588628A690C
:103E1000D20703D18A69012313438B616A78602A30
:103E20001ED020226A708B699B0619D58B69DB0630
:103E300005D51023CB61636C04261E436664CA61FA
:103E40000EE042216A780240282A01D0B42200E024
:103E500004220A4321680B6893430B6068702B4867
:103E60006063A06B216B00281BD0212901D0112990
:103E700017D121680A68520404D5012292030B6805
:103E800093430B60FEF78AF801281ED000202870AB
:103E9000A06B1F498163FEF75EF8002827D0A06B56
:103EA00030E0E06B002810D0222901D012290CD17B
:103EB00021680A68120404D50122D2030B689343D7
:103EC0000B60FEF76BF8012812D16878602808D1E2
:103ED000202068700020287020632046FEF784F9B7
:103EE00070BD0020287020632046FEF7C2F970BD27
:103EF00000202870E06B06498163FEF72CF800284B
:103F0000F5D0E06B816B884770BDC046194B000847
:103F1000893C0008B0B5524AC262002202630346DF
:103F2000403320245C7042639A70490712D5416A7D
:103F30000468646A0C70416A491C4162018D002961
:103F400008D0448D641E4485491E0185416C0424BB
:103F50000C4344645978597801680C68FE25AC43D9
:103F60000C601A701022CA61FEF7DCF9B0BDC046C1
:103F7000F0B581B004682023E361024640325578F1
:103F80005678212D07D128252E40F425ED43282EE3
:103F90000DD0AD1C0CE0222E0FD1557828262E40D6
:103FA000F425ED43282E00D1B035122601E0B235BC
:103FB000112627682F40276006636568D44E2E407F
:103FC000666000254563D44EC662CE0605D5102630
:103FD000E661466C0427374347645678490705D5A0
:103FE000602E03D1616AC9B200910099A169890765
:103FF00000D5A562A169C90703D1A16901260E43B5
:10400000A661416C5478602C0FD000290DD15178F5
:1040100021290FD15370056315709178957040294F
:1040200016D1FEF7A9F901B0F0BD416CFFF7CEFE45
:1040300001B0F0BD5178222910D15370056315707D
:1040400091789570402907D1FEF770F901B0F0BD65
:10405000FEF76AF901B0F0BDFEF765F901B0F0BDF9
:104060000000FFFF10B502464032002393705478E1
:1040700020215170F421C943212C0AD11124046359
:1040800043631370527828231340282B12D0891CC5
:1040900011E0122404634363137052782823134001
:1040A000282B00D1B031026813680B401360FEF773
:1040B0003AF910BDB231026813680B401360FEF785
:1040C00033F910BDF0B585B0044603681D68C06AB9
:1040D000019026464036707820220292DA61F72756
:1040E0000740FE220092D243212F04D0222F04D178
:1040F000921C222705E0121D03E0282806D17078C3
:104100000027707818681040186027630495012014
:104110000390C7035868384358605868ED4D054010
:104120005D609869800701D5002098629869C00792
:10413000049D03D19869039A10439861680409D4D7
:104140003D420D4612D01868B8431860E06B002855
:1041500009D10BE0039880031D6885431D60A06BA7
:1041600000280D4602D000684068608568070FD5BA
:10417000606A5B6A0370606A401C60620420854369
:10418000208D002804D0401E2085608D401E608553
:10419000608D002803D0606C042303436364102700
:1041A000E8065DD5049838405AD0608D00280ED0BE
:1041B0002068C761606C042101436164554801991E
:1041C00001424DD1616C2046FFF700FE48E0707857
:1041D000514B28282DD1039840060199814228D1BE
:1041E000E36200202063029971706063B070690718
:1041F00012D5616A2268526A0A70616A491C61625A
:10420000218D002908D0628D521E6285491E2185AC
:10421000616C04220A4362647178717821680A68CB
:10422000009B9A430A603070CF612046FEF77AF80F
:1042300016E070782168CF61292811D10198984241
:104240000ED08869800701D5002088628869C00780
:1042500003D18869039A10438861204600F05EF814
:1042600004970027B7706763606C00282DD0616CDD
:104270002046FFF7ABFD7078282846D1F748E0626A
:104280002763029870706763B770680712D5606A19
:104290002168496A0170606A401C6062208D0028B4
:1042A00008D0618D491E6185401E2085606C042107
:1042B000014361647078707820680168009A9143C6
:1042C000016037700499C16117E0E06AE34DA842CC
:1042D0000BD170780299717037702763222811D141
:1042E0002046FEF7DBFB05B0F0BD204600F016F8D7
:1042F000E56202987070377027632046FEF712F867
:1043000005B0F0BD2046FEF7CAFB05B0F0BDC046C3
:1043100000E800FEFFFFFFFE0000FFFFB0B50168F0
:104320000C680246403200239370650403D42404D1
:1043300005D51A4C00E0184C0D6825400D605478E6
:10434000292C0CD12824547021250563137053782F
:104350002340F422D243282B16D0921C15E0547827
:104360002A2C10D128245470222505631370537809
:104370002340F422D243282B00D1B0320B681340E3
:104380000B60FEF78BFBB0BDB2320B6813400B60C5
:10439000FEF785FBB0BDC046FFBFFFFFFF7FFFFFFD
:1043A000F0B587B017460446403005902068826912
:1043B000D20602D40027384650E006911021C16190
:1043C0002668B169012089063BD401900120029042
:1043D00080030490002503950CE0202003990143FD
:1043E0000391029D694269412668B2692023134006
:1043F0002B432BD1069E701CF4D0FDF7ADFE002E92
:1044000002D0C01BB042EDD9206842680599897876
:1044100083691B040BD5049B1A4008D1202906D0C0
:104420004168049A11434160FDF796FE07462068F3
:1044300080698006D6D4FDF78FFEC01B1A28F6D3FC
:10444000CBE704270146002906D107E00422039F99
:1044500017430198002901D02021F161012225682C
:10446000A969CB0507D44B050BD4890510D40028C6
:1044700015D107B0F0BD1302EB61174310464B0591
:10448000F3D59202EA610822174301208905EED58F
:1044900001204102E96102210F430028E9D0A96906
:1044A000890701D50021A962A969C90703D1A969B2
:1044B00001220A43AA616968064A0A406A60616C7F
:1044C00039436164202205994A7000220A708A707B
:1044D00007B0F0BD00E800FEF0B581B04025435DB7
:1044E000012B02D1022001B0F0BD0446403401236B
:1044F000237016460E40F70617D40F063BD52A4008
:1045000039D001680A68AA430A60458D4A68002DBF
:1045100048D0C34D2A40458D2D0A5DD01D068E69B9
:10452000F60361D4FF26068563E001681022CA61A4
:10453000426C042515434564426BB54D6020AA4288
:10454000054600D02025B34EB242064600D02E4686
:10455000B14DAA4200D030460A6802430A60886919
:10456000800701D5002088628869C00757D1886913
:104570001843886153E0720604D4B2064FD5FFF7A2
:10458000F7FC4CE0418D002922D101684A68920174
:1045900045D4C26A314DAA4255D198034A680243B4
:1045A0004A603CE0920113D40023A3706578202276
:1045B0006270F422D243212D35D111250563436366
:1045C0002370637828251D40282D3FD0921C3EE0A3
:1045D0004021FFF7FBFB22E0458D0585C56A1F4E94
:1045E000B54203D15D0604E0038502E0DE07C56A3B
:1045F000B5434E68894F37402F43058DEEB23604E0
:10460000B2183A434A60428D521B4285627808686C
:10461000222A01D1DA0300E09A0310430860002047
:10462000207001B0F0BD12250563436323706378E9
:1046300028251D40282D00D1B0320B6813400B6097
:10464000FDF771FEEBE7FFF70DFDE8E7B2320B680F
:1046500013400B60FDF768FEE1E7C0460000FFFF76
:10466000F0B583B04025435D012B02D1022003B099
:10467000F0BD044640340123237016460E40F70671
:1046800020D4B70744D40F064AD52A4048D06178D1
:1046900028250D40F221CA43282D00D1B0320168EF
:1046A0000D6815400D600A68902515430D60428D18
:1046B000002A52D0428D120A53D08A69D20367D59C
:1046C0001A4666E001681022CA61426C042515434F
:1046D0004564426B4E4D6020AA42054600D020251D
:1046E0004C4EB242064600D02E464B4DAA4200D058
:1046F00030460A6802430A608869800701D50020B5
:1047000088628869C0077ED18869184388617AE029
:10471000016D02689162F221C943F231016572E0D4
:10472000720604D4B2066ED5FFF722FC6BE0617806
:1047300028230B40F221CA43282B00D1B032016854
:104740000B6813400B600A68902313430B6001222F
:104750006378222B0BD053030BE04021FFF736FB8D
:1047600051E0428D02855D060295D2B214E0092324
:104770009B020193458D2D0A029204D08D69ED03B1
:1047800022D5164621E0468D06855506F6B21EE076
:10479000FF2202851D060295C66C4F689E4D3D4066
:1047A0009C4F37401204D2195219029D2A434A6085
:1047B000028D458DAA1A428562780868222A01D1A5
:1047C000DA031EE09A031CE0FF2606851506C76C77
:1047D0004B68944A1A408F4B3B403604F318019EB5
:1047E000334313432B434B60028D438D9A1A42850A
:1047F00062780868222A02D1029AD20301E0029A62
:104800009203104308600020207003B0F0BDC04642
:10481000294A0008D944000861460008009C00FCB1
:10482000FF030000F0B583B04024035D012B02D1EB
:10483000022003B0F0BD0546403501232B7016461B
:104840000E40F70619D477072BD4B70739D40F06D3
:1048500042D5144040D0448D002C03D0048D002C50
:1048600000D18AE0402304460E4619461746FFF75A
:10487000ADFA3A4620463146C3E004681026E661A8
:10488000466C042737434764A669B60701D500265E
:10489000A662A669F60700D0B3E0A6691E43A6612A
:1048A000AFE0436A0468646A1C70436A5B1C43623D
:1048B000038D5B1E0385438D5B1E43850423994353
:1048C0009FE0036D5B1C14D0036D0468A362F223A8
:1048D000DB43F233036594E0730600D491E06B7818
:1048E00028241C40F223DB43282C0FD014460E460C
:1048F0000FE00368446A26789E62631C4362038D5E
:104900005B1E0385438D5B1E43857AE014460E468D
:10491000B03301680A681A400A6002210746FFF7AF
:10492000D3F96878222801D03D4B00E03B4B31465B
:1049300022460920860238467C8D240A354F09D04C
:1049400004680094A46901270297E40301961ED528
:10495000029C1DE0448D04853340C66C3E40E4B2A9
:104960002404A4191C4303685E682E4F3E4026436E
:104970000124640634435C6043E0448D240A264CE1
:1049800018D00768BC69E40329D51C4628E0FF2439
:1049900004852704C46C1F4E34403C19019E3340EB
:1049A0002343009F7C681F4E34401C43029B1B0620
:1049B000234325E0468D019606852746C66C04688C
:1049C000029464683C40134F3E40019FFFB23F0495
:1049D000BE1926435B063343029C636011E0FF244B
:1049E000048524040294C66C0A4C2640029CA41937
:1049F00002947E68084C2640029C26431B063343E3
:104A00007B600A40920601D5FFF7B2FA00202870B9
:104A100003B0F0BDFF030000009C00FC00240080F8
:104A200000200080009800FCF0B581B04023C45CF9
:104A3000C36A012C02D1022001B0F0BD044640340B
:104A40000125257016460E40B70606D4F7060AD48F
:104A5000310704D5FFF772F901E0FFF733FB0020BF
:104A6000207001B0F0BD1704BE0F21D0AE0332405C
:104A70000026002F06D5C76B002F03D03E6877684D
:104A80007E427E41002A06D0826B002A03D0126843
:104A90005268002A00D03546002D0DD06278282AB1
:104AA00021D10122520693421DD1FFF733FAD6E7F6
:104AB00000681021C161D2E701681022CA61416C0F
:104AC00004220A4342646178664A1342C7D1F7223E
:104AD0001140212902D0222901D122210163416CF8
:104AE000FFF774F9BBE7627801681025CD61292AC8
:104AF000B5D15D4A9342B2D08A69920701D50022AE
:104B00008A628A69D20703D18A69012313438B61C0
:104B1000FFF704FCA3E7C046F0B581B04023C45CB6
:104B2000C36A012C02D1022001B0F0BD044640341A
:104B3000012525700A40960618D4D6061CD45107C4
:104B40002BD4110772D4910712D5418D002900D1C1
:104B500083E00168426A13788B62511C4162018DC7
:104B6000491E0185418D491E418501E0FFF7AAFAE2
:104B70000020207001B0F0BD428D002A26D00168CF
:104B80001022CA61416C04220A43426435490B4237
:104B9000EED1416CFFF71AF9EAE7418D00290CD0FC
:104BA000416A0268526A0A70416A491C4162018D79
:104BB000491E0185418D491E4185418D0029D7D16E
:104BC00029498B42D4D0FFF7A9FBD1E76678264A62
:104BD000282E2ED16E06B3422BD1C2620022026370
:104BE000202363704263A270490712D5416A0368AB
:104BF0005B6A0B70416A491C4162018D002908D033
:104C0000438D5B1E4385491E0185416C04230B4384
:104C100043646178617801680B68FE25AB430B60E3
:104C200022701022CA61FDF77DFBA1E7FFF786F82D
:104C30009EE7667801681027CF61292E98D19342AC
:104C400096D08A69920701D500228A628A69D207C2
:104C5000B9D18A692A438A61B5E702490B4287D1F3
:104C6000B1E7C046FFFFFFFE0000FFFFF0B583B0D5
:104C70000446006880690027800629D415460E4640
:104C8000029720464030019007E020688069800646
:104C900015D52068806980060FD4204631462A4603
:104CA000FFF77EFB0127002812D1FDF755FA002EF1
:104CB000EBD0401BB042ECD9E7E7029F08E0606C04
:104CC000202108436064019A517000201070907098
:104CD000384603B0F0BD0000F0B585B005200007F0
:104CE0000124A10200252A46FDF72EFA6103049152
:104CF0002A4E30462A46FDF727FAE1030391304653
:104D00002A46FDF721FAA103029130462A46FDF713
:104D10001BFA2103019130462A46FDF715FA202798
:104D2000304639462246FDF70FFA2046FDF73AF99C
:104D3000304639462A46FDF707FA2046FDF732F994
:104D4000304604992246FDF7FFF9304603992A467A
:104D5000FDF7FAF9304602992A46FDF7F5F9304693
:104D600001992A46FDF7F0F9304639462246FDF70B
:104D7000EBF92046FDF716F9304639462A46FDF78D
:104D8000E3F92046FDF70EF902242046FDF70AF963
:104D90002046FDF707F905B0F0BDC04600040050FD
:104DA000F0B587B03220FDF7FDF8012461030491CE
:104DB000F24D28462246FDF7C7F9E1030591284642
:104DC0002246FDF7C1F9A103039100262846324689
:104DD000FDF7BAF92103069128463246FDF7B4F9EA
:104DE0002027284639462246FDF7AEF92046FDF732
:104DF000D9F8284639463246FDF7A6F92046FDF790
:104E0000D1F805200290FDF7CDF8284604992246F6
:104E1000FDF79AF9284605992246FDF795F92846A7
:104E200003993246FDF790F9284606993246FDF778
:104E30008BF9284639462246FDF786F92046FDF7CC
:104E4000B1F8284639463246FDF77EF92046FDF78F
:104E5000A9F82046FDF7A6F8284604992246FDF752
:104E600073F9284605992246FDF76EF928460399FD
:104E70003246FDF769F9284606993246FDF764F98E
:104E8000284639462246FDF75FF92046FDF78AF8A5
:104E9000284639463246FDF757F92046FDF782F895
:104EA000284604993246FDF74FF9284605992246CF
:104EB000FDF74AF9284603993246FDF745F9284699
:104EC00006993246FDF740F9284639462246FDF755
:104ED0003BF92046FDF766F8284639463246FDF78D
:104EE00033F92046FDF75EF8029800070290A10210
:104EF00001913246FDF728F9284604993246FDF71C
:104F000023F9284605992246FDF71EF928460399FC
:104F10003246FDF719F9284606993246FDF714F98D
:104F2000284639462246FDF70FF92046FDF73AF8A4
:104F3000284639463246FDF707F92046FDF732F894
:104F4000284604993246FDF7FFF82846059932466F
:104F5000FDF7FAF8284603993246FDF7F5F828469A
:104F600006992246FDF7F0F8284639462246FDF715
:104F7000EBF82046FDF716F8284639463246FDF78D
:104F8000E3F82046FDF70EF802200090FDF70AF83E
:104F9000029801993246FDF7D7F82846049932461F
:104FA000FDF7D2F8284605993246FDF7CDF8284698
:104FB00003993246FDF7C8F8284606993246FDF7B0
:104FC000C3F8284639462246FDF7BEF82046FCF7CE
:104FD000E9FF284639463246FDF7B6F82046FCF789
:104FE000E1FF284604993246FDF7AEF828460599B8
:104FF0003246FDF7A9F8284603992246FDF7A4F8A2
:10500000284606992246FDF79FF82846394622464B
:10501000FDF79AF82046FCF7C5FF28463946324688
:10502000FDF792F82046FCF7BDFF0098FCF7BAFFA9
:10503000029801993246FDF787F8284604993246CE
:10504000FDF782F8284605993246FDF77DF8284697
:1050500003993246FDF778F8284606993246FDF75F
:1050600073F8284639462246FDF76EF82046FCF7CD
:1050700099FF284639463246FDF766F82046FCF788
:1050800091FF284604993246FDF75EF828460599B7
:105090002246FDF759F8284603992246FDF754F8B1
:1050A000284606993246FDF74FF8284639462246EB
:1050B000FDF74AF82046FCF775FF28463946324688
:1050C000FDF742F82046FCF76DFF0098FCF76AFFF9
:1050D000029801993246FDF737F82846049932467E
:1050E000FDF732F8284605993246FDF72DF8284697
:1050F00003993246FDF728F8284606993246FDF70F
:1051000023F8284639462246FDF71EF82046FCF7CC
:1051100049FF284639463246FDF716F82046FCF787
:1051200041FF284604992246FDF70EF828460599C6
:105130003246FDF709F8284603993246FDF704F890
:10514000284606993246FCF7FFFF28463946224694
:10515000FCF7FAFF2046FCF725FF28463946324681
:10516000FCF7F2FF2046FCF71DFF009C2046FCF7F1
:1051700019FF2046FCF716FF07B0F0BD00040050F1
:10518000B0B50478002C12D0451C05200007012280
:105190009102FCF7D9FFE4B2200900F025F820467F
:1051A00000F022F8681C2C78002C0546EDD1B0BD2B
:1051B000B0B50C46054605200007012189020022F2
:1051C000FCF7C2FF002D01D03F2000E07F20C0434C
:1051D0000019C4B2200900F007F8204600F004F8D6
:1051E0000220FCF7DFFEB0BD70B506460124024682
:1051F00022406103134D2846FCF7A6FFE103B007E8
:10520000C20F2846FCF7A0FFA1037007C20F284673
:10521000FCF79AFF21033007C20F2846FCF794FFE2
:105220002026284631462246FCF78EFF2046FCF712
:10523000B9FE002228463146FCF786FF2046FCF7DF
:10524000B1FE70BD00040050F0B583B00446642682
:105250000296012501950D4F0097B8210F222B468C
:10526000FDF78CF83878BD280DD1194880210170E0
:10527000012300A949C1B82120222046FDF754FA94
:105280000546401E8541284603B0F0BD740000204D
:10529000B0B584B004460E48012505706421009025
:1052A00001950291B821212220462B46FDF73CFAB8
:1052B00000280AD10320019006480090B821A822B6
:1052C00001232046FDF7D8F90025284604B0B0BDDB
:1052D0007500002070000020FEE77047704780B521
:1052E000FDF7DEFB80BD0000F0B59DB00FAC3821AE
:1052F0002046FBF7F5F800250E950D950C950B95BE
:105300000A9568462821FBF7EBF80327F8021C49A9
:105310000A68824301200F90C302D2180A60022655
:10532000199605210904109181051C91C1041B9156
:1053300000041A902046FDF789FE002803D0EFF301
:10534000108072B6FEE70E950D950C950B970F2009
:105350000A900AA80121FDF725FD002803D0EFF3EC
:10536000108072B6FEE7049500966846FDF70EFCC5
:10537000002803D0EFF3108072B6FEE71DB0F0BD39
:10538000007000407047000080B50248FEF7AFFA99
:1053900080BDC046CC000020B0B5416A0A070CD4DD
:1053A000CA0714D18A071CD44A0724D4CA062CD4AD
:1053B0008A0634D44A063CD44CE00122D203036866
:1053C0005C689443426B22435A60CA07EAD00122C8
:1053D000520403685C689443826A22435A608A07D5
:1053E000E2D50122120403685C689443C26A224336
:1053F0005A604A07DAD50122920403685C68944334
:10540000026B22435A60CA06D2D5012212030368F6
:105410009C689443826B22439A608A06CAD5012213
:10542000520303689C689443C26B22439A604A0605
:1054300010D501221305026854689C43056C2C4367
:1054400054609D4206D103235B0554689C43436C22
:1054500023435360090607D50121C9040268536834
:105460008B43806C18435060B0BD0000F0B583B032
:105470000446064678360027F760FCF76DFE0346C3
:105480002068006800071ED528480090012002907F
:105490004105002220463D461F4600F079F93B4673
:1054A0002F4600280FD0EFF31080029981F3108867
:1054B00021680A6880239A430A6080F310880320D9
:1054C00020227C212EE020680068400723D5174861
:1054D00000900125A9050022204600F059F9002876
:1054E00019D0EFF3108085F3108809214901226853
:1054F00013688B43136080F31088EFF3108085F3FB
:10550000108821688A68AA438A6080F31088032083
:105510002022802106E02020E067B0602766642119
:105520003A4638466250377003B0F0BDFFFFFF01C6
:10553000F0B581B0044601680868834A0240A0685B
:1055400023690343606918431043E269104308600C
:10555000032738034B688343E06818434860A56914
:105560007A4B994202D0206A284300E028460B2556
:105570002D028E68AE4306438E607548814210DD71
:105580000026744881421DD0734881421AD0734866
:10559000814216D17348C06C8007000F73A52E5846
:1055A00010E06F48814205D099420AD16D48C06C25
:1055B000000A01E06B48C06C0C2505406A4846595A
:1055C00000E010260125E803994214D0824225D13B
:1055D000082E00D95CE000277E4436797600B74477
:1055E00004616B577B5757577D00FDF7DDFC0028A2
:1055F00000D075E094E0082E2FD800210091C0461D
:105600007E4436797600B74404281B2823282828AE
:105610002B00FDF7C9FC002824D186E0082E3CD8D9
:105620000027C0467E4436797600B74404404D36A4
:10563000693636366B00FDF7B7FC002864D16FE0A1
:1056400048480068C0066DD54D4800280AD16CE076
:10565000FDF7C4FC002805D167E00020012100917E
:10566000002862D062685743B8425FD31103884272
:105670005CD8010E56080002002380195941FAF740
:10568000ABFD41494118414A9142009F46D34DE04C
:1056900000200127002823D142E000200127002814
:1056A00032D13DE0FDF78AFC002819D138E0FDF742
:1056B00085FC002828D133E02A480068C0063BD585
:1056C0002F4800280CD12BE026480068C00637D5AB
:1056D0002B48002818D123E0FDF780FC00281FD0BC
:1056E000400061684A08101800F062FA0246103A59
:1056F00024498A421AD201400007400F08430DE0B6
:10570000FDF76CFC00280BD061684A08101800F007
:105710004FFA014610391B4A914207D22168C860EE
:105720003D4603E0154800289CD1009D0020A0665E
:10573000E066284601B0F0BD10480028D0D1EFE760
:105740000E480028E0D1EBE7F369FFEF0048004086
:10575000FF4B0040004C004000500040003801402A
:1057600000440040001002403860000801000000C2
:105770000400000002000000080000000024F40003
:1057800000093D00F0FF000000FDFFFF00FD0F00DD
:10579000F0B585B004930F4604460068C069084020
:1057A000401A414241410020914200D08DE016460E
:1057B00002902046783001900A9D01200090C0029E
:1057C000039007E02068C0693840C01B4142414156
:1057D000B14245D1681CF5D0FCF7BEFC0146032060
:1057E000002D00D171E0049A891AA9426DD8206871
:1057F00001684907E6D5402FE4D0802FE2D0C16987
:10580000090730D4C169039A1142DBD003990162C0
:10581000EFF31080012282F31088092149012368E7
:105820001D688D431D6080F31088EFF3108082F3B4
:10583000108821688B6893438B6080F31088236EF7
:1058400003202021012B38D1EFF3108382F310883D
:10585000226815681026B543156083F310882CE084
:10586000029805B0F0BD08210162EFF31080009EA0
:1058700086F310880922520123681D6895431D6034
:1058800080F31088EFF3108086F310882268936805
:10589000B343936080F31088206E01280CD1EFF39E
:1058A0001082012080F3108823681D681026B543FC
:1058B0001D6082F3108800E030462022019B9A6030
:1058C00000222266A2661A70D96005B0F0BD000001
:1058D0008CB0FDF7EFF8FFF707FD00250995089557
:1058E00007950695059593480168042211430160C8
:1058F000016811400A910A990168802211430160F0
:10590000016811400A910A9901680126314301603A
:10591000016831400A910A9901680222114301602D
:10592000006810400A900A988348844F39462A46F6
:10593000FCF70AFC05200407B10220462A46FCF7C2
:1059400003FC089507950696059705AF7A483946F2
:10595000FCF73AFB0895079506967D200490C00059
:1059600003901830059020463946FCF72DFB74480B
:105970007449754A0260021D62C205614561856114
:10598000C5610562FCF776FC002803D0EFF31080B8
:1059900072B6FEE7049D6A480021FCF7E3FB00288D
:1059A00003D0EFF3108072B6FEE76548002421466D
:1059B000FCF7F9FB002803D0EFF3108072B6FEE786
:1059C00062480C21624A04624462E1235B021CC00B
:1059D000046044608160C46004610C38FEF755F8CF
:1059E000002803D0EFF3108072B6FEE759485A49F9
:1059F0002A01B307036041608460C26004614461AE
:105A000008940794069405940B940A94FDF720FEDD
:105A1000002803D0EFF3108072B6FEE73003059044
:105A20004C4805A9FDF7B8FE002803D0EFF310801D
:105A300072B6FEE70B940A9446480AA9FDF7DAFD10
:105A4000002803D0EFF3108072B6FEE73C48FFF762
:105A5000FBFB4048FDF76EFEFFF7A2F9FFF73CF9AC
:105A6000424D039F049402E03846FCF79BFA3B4802
:105A70000078022821D13948047039490868471C48
:105A80000F6038480068FBF78BFB02460B46364D2B
:105A900003CD083DFAF7E0FF04460E4603C5334D3B
:105AA0003846039FFBF74DFA02460B462046049CFE
:105AB0003146FBF701F803C5083D03CD2C4A2D4BB9
:105AC000083DFBF749FA0090019120212A4E30460B
:105AD0002AA2FAF71DFC3046FAF7C2FCE34382B271
